{
  "contractName": "ArtChain",
  "abi": [
    {
      "inputs": [
        {
          "internalType": "string",
          "name": "_name",
          "type": "string"
        },
        {
          "internalType": "string",
          "name": "_symbol",
          "type": "string"
        },
        {
          "internalType": "address payable",
          "name": "_artist",
          "type": "address"
        },
        {
          "internalType": "uint256",
          "name": "_royaltyPercentage",
          "type": "uint256"
        },
        {
          "internalType": "uint256",
          "name": "_secondaryRoyaltyPercentage",
          "type": "uint256"
        }
      ],
      "stateMutability": "nonpayable",
      "type": "constructor"
    },
    {
      "anonymous": false,
      "inputs": [
        {
          "indexed": true,
          "internalType": "address",
          "name": "owner",
          "type": "address"
        },
        {
          "indexed": true,
          "internalType": "address",
          "name": "approved",
          "type": "address"
        },
        {
          "indexed": true,
          "internalType": "uint256",
          "name": "tokenId",
          "type": "uint256"
        }
      ],
      "name": "Approval",
      "type": "event"
    },
    {
      "anonymous": false,
      "inputs": [
        {
          "indexed": true,
          "internalType": "address",
          "name": "owner",
          "type": "address"
        },
        {
          "indexed": true,
          "internalType": "address",
          "name": "operator",
          "type": "address"
        },
        {
          "indexed": false,
          "internalType": "bool",
          "name": "approved",
          "type": "bool"
        }
      ],
      "name": "ApprovalForAll",
      "type": "event"
    },
    {
      "anonymous": false,
      "inputs": [
        {
          "indexed": false,
          "internalType": "uint256",
          "name": "tokenId",
          "type": "uint256"
        },
        {
          "indexed": false,
          "internalType": "address",
          "name": "affiliate",
          "type": "address"
        },
        {
          "indexed": false,
          "internalType": "uint256",
          "name": "commissionAmount",
          "type": "uint256"
        }
      ],
      "name": "CommissionPaid",
      "type": "event"
    },
    {
      "anonymous": false,
      "inputs": [
        {
          "indexed": false,
          "internalType": "uint256",
          "name": "tokenId",
          "type": "uint256"
        },
        {
          "indexed": false,
          "internalType": "address",
          "name": "to",
          "type": "address"
        }
      ],
      "name": "NFTCreated",
      "type": "event"
    },
    {
      "anonymous": false,
      "inputs": [
        {
          "indexed": false,
          "internalType": "uint256",
          "name": "tokenId",
          "type": "uint256"
        },
        {
          "indexed": false,
          "internalType": "address",
          "name": "from",
          "type": "address"
        },
        {
          "indexed": false,
          "internalType": "address",
          "name": "to",
          "type": "address"
        },
        {
          "indexed": false,
          "internalType": "uint256",
          "name": "royaltyAmount",
          "type": "uint256"
        }
      ],
      "name": "OwnershipTransferred",
      "type": "event"
    },
    {
      "anonymous": false,
      "inputs": [
        {
          "indexed": true,
          "internalType": "address",
          "name": "from",
          "type": "address"
        },
        {
          "indexed": true,
          "internalType": "address",
          "name": "to",
          "type": "address"
        },
        {
          "indexed": true,
          "internalType": "uint256",
          "name": "tokenId",
          "type": "uint256"
        }
      ],
      "name": "Transfer",
      "type": "event"
    },
    {
      "inputs": [
        {
          "internalType": "address",
          "name": "",
          "type": "address"
        }
      ],
      "name": "affiliates",
      "outputs": [
        {
          "internalType": "bool",
          "name": "",
          "type": "bool"
        }
      ],
      "stateMutability": "view",
      "type": "function",
      "constant": true
    },
    {
      "inputs": [
        {
          "internalType": "address",
          "name": "to",
          "type": "address"
        },
        {
          "internalType": "uint256",
          "name": "tokenId",
          "type": "uint256"
        }
      ],
      "name": "approve",
      "outputs": [],
      "stateMutability": "nonpayable",
      "type": "function"
    },
    {
      "inputs": [],
      "name": "artist",
      "outputs": [
        {
          "internalType": "address payable",
          "name": "",
          "type": "address"
        }
      ],
      "stateMutability": "view",
      "type": "function",
      "constant": true
    },
    {
      "inputs": [
        {
          "internalType": "address",
          "name": "owner",
          "type": "address"
        }
      ],
      "name": "balanceOf",
      "outputs": [
        {
          "internalType": "uint256",
          "name": "",
          "type": "uint256"
        }
      ],
      "stateMutability": "view",
      "type": "function",
      "constant": true
    },
    {
      "inputs": [
        {
          "internalType": "uint256",
          "name": "tokenId",
          "type": "uint256"
        }
      ],
      "name": "getApproved",
      "outputs": [
        {
          "internalType": "address",
          "name": "",
          "type": "address"
        }
      ],
      "stateMutability": "view",
      "type": "function",
      "constant": true
    },
    {
      "inputs": [
        {
          "internalType": "address",
          "name": "owner",
          "type": "address"
        },
        {
          "internalType": "address",
          "name": "operator",
          "type": "address"
        }
      ],
      "name": "isApprovedForAll",
      "outputs": [
        {
          "internalType": "bool",
          "name": "",
          "type": "bool"
        }
      ],
      "stateMutability": "view",
      "type": "function",
      "constant": true
    },
    {
      "inputs": [],
      "name": "name",
      "outputs": [
        {
          "internalType": "string",
          "name": "",
          "type": "string"
        }
      ],
      "stateMutability": "view",
      "type": "function",
      "constant": true
    },
    {
      "inputs": [
        {
          "internalType": "uint256",
          "name": "tokenId",
          "type": "uint256"
        }
      ],
      "name": "ownerOf",
      "outputs": [
        {
          "internalType": "address",
          "name": "",
          "type": "address"
        }
      ],
      "stateMutability": "view",
      "type": "function",
      "constant": true
    },
    {
      "inputs": [],
      "name": "royaltyPercentage",
      "outputs": [
        {
          "internalType": "uint256",
          "name": "",
          "type": "uint256"
        }
      ],
      "stateMutability": "view",
      "type": "function",
      "constant": true
    },
    {
      "inputs": [
        {
          "internalType": "address",
          "name": "from",
          "type": "address"
        },
        {
          "internalType": "address",
          "name": "to",
          "type": "address"
        },
        {
          "internalType": "uint256",
          "name": "tokenId",
          "type": "uint256"
        }
      ],
      "name": "safeTransferFrom",
      "outputs": [],
      "stateMutability": "nonpayable",
      "type": "function"
    },
    {
      "inputs": [
        {
          "internalType": "address",
          "name": "from",
          "type": "address"
        },
        {
          "internalType": "address",
          "name": "to",
          "type": "address"
        },
        {
          "internalType": "uint256",
          "name": "tokenId",
          "type": "uint256"
        },
        {
          "internalType": "bytes",
          "name": "data",
          "type": "bytes"
        }
      ],
      "name": "safeTransferFrom",
      "outputs": [],
      "stateMutability": "nonpayable",
      "type": "function"
    },
    {
      "inputs": [],
      "name": "secondaryRoyaltyPercentage",
      "outputs": [
        {
          "internalType": "uint256",
          "name": "",
          "type": "uint256"
        }
      ],
      "stateMutability": "view",
      "type": "function",
      "constant": true
    },
    {
      "inputs": [
        {
          "internalType": "address",
          "name": "operator",
          "type": "address"
        },
        {
          "internalType": "bool",
          "name": "approved",
          "type": "bool"
        }
      ],
      "name": "setApprovalForAll",
      "outputs": [],
      "stateMutability": "nonpayable",
      "type": "function"
    },
    {
      "inputs": [
        {
          "internalType": "bytes4",
          "name": "interfaceId",
          "type": "bytes4"
        }
      ],
      "name": "supportsInterface",
      "outputs": [
        {
          "internalType": "bool",
          "name": "",
          "type": "bool"
        }
      ],
      "stateMutability": "view",
      "type": "function",
      "constant": true
    },
    {
      "inputs": [],
      "name": "symbol",
      "outputs": [
        {
          "internalType": "string",
          "name": "",
          "type": "string"
        }
      ],
      "stateMutability": "view",
      "type": "function",
      "constant": true
    },
    {
      "inputs": [
        {
          "internalType": "uint256",
          "name": "",
          "type": "uint256"
        }
      ],
      "name": "tokenBuyer",
      "outputs": [
        {
          "internalType": "address",
          "name": "",
          "type": "address"
        }
      ],
      "stateMutability": "view",
      "type": "function",
      "constant": true
    },
    {
      "inputs": [
        {
          "internalType": "uint256",
          "name": "tokenId",
          "type": "uint256"
        }
      ],
      "name": "tokenURI",
      "outputs": [
        {
          "internalType": "string",
          "name": "",
          "type": "string"
        }
      ],
      "stateMutability": "view",
      "type": "function",
      "constant": true
    },
    {
      "inputs": [
        {
          "internalType": "address",
          "name": "from",
          "type": "address"
        },
        {
          "internalType": "address",
          "name": "to",
          "type": "address"
        },
        {
          "internalType": "uint256",
          "name": "tokenId",
          "type": "uint256"
        }
      ],
      "name": "transferFrom",
      "outputs": [],
      "stateMutability": "nonpayable",
      "type": "function"
    },
    {
      "inputs": [
        {
          "internalType": "address",
          "name": "_to",
          "type": "address"
        }
      ],
      "name": "createNFT",
      "outputs": [],
      "stateMutability": "nonpayable",
      "type": "function"
    },
    {
      "inputs": [
        {
          "internalType": "address",
          "name": "_to",
          "type": "address"
        },
        {
          "internalType": "uint256",
          "name": "_tokenId",
          "type": "uint256"
        }
      ],
      "name": "transferOwnership",
      "outputs": [],
      "stateMutability": "payable",
      "type": "function",
      "payable": true
    },
    {
      "inputs": [
        {
          "internalType": "uint256",
          "name": "_tokenId",
          "type": "uint256"
        },
        {
          "internalType": "address",
          "name": "_buyer",
          "type": "address"
        }
      ],
      "name": "payCommission",
      "outputs": [],
      "stateMutability": "payable",
      "type": "function",
      "payable": true
    },
    {
      "inputs": [
        {
          "internalType": "address",
          "name": "_affiliate",
          "type": "address"
        }
      ],
      "name": "addAffiliate",
      "outputs": [],
      "stateMutability": "nonpayable",
      "type": "function"
    },
    {
      "inputs": [
        {
          "internalType": "address",
          "name": "_affiliate",
          "type": "address"
        }
      ],
      "name": "removeAffiliate",
      "outputs": [],
      "stateMutability": "nonpayable",
      "type": "function"
    },
    {
      "inputs": [
        {
          "internalType": "uint256",
          "name": "_tokenId",
          "type": "uint256"
        }
      ],
      "name": "getBuyerOfToken",
      "outputs": [
        {
          "internalType": "address",
          "name": "",
          "type": "address"
        }
      ],
      "stateMutability": "view",
      "type": "function",
      "constant": true
    },
    {
      "inputs": [
        {
          "internalType": "address payable",
          "name": "newArtist",
          "type": "address"
        }
      ],
      "name": "changeArtist",
      "outputs": [],
      "stateMutability": "nonpayable",
      "type": "function"
    }
  ],
  "bytecode": "0x60806040526000600b553480156200001657600080fd5b5060405162003c4b38038062003c4b83398181016040528101906200003c9190620002f1565b848481600090816200004f9190620005f8565b508060019081620000619190620005f8565b50505082600660006101000a81548173ffffffffffffffffffffffffffffffffffffffff021916908373ffffffffffffffffffffffffffffffffffffffff16021790555081600781905550806008819055505050505050620006df565b6000604051905090565b600080fd5b600080fd5b600080fd5b600080fd5b6000601f19601f8301169050919050565b7f4e487b7100000000000000000000000000000000000000000000000000000000600052604160045260246000fd5b6200012782620000dc565b810181811067ffffffffffffffff82111715620001495762000148620000ed565b5b80604052505050565b60006200015e620000be565b90506200016c82826200011c565b919050565b600067ffffffffffffffff8211156200018f576200018e620000ed565b5b6200019a82620000dc565b9050602081019050919050565b60005b83811015620001c7578082015181840152602081019050620001aa565b60008484015250505050565b6000620001ea620001e48462000171565b62000152565b905082815260208101848484011115620002095762000208620000d7565b5b62000216848285620001a7565b509392505050565b600082601f830112620002365762000235620000d2565b5b815162000248848260208601620001d3565b91505092915050565b600073ffffffffffffffffffffffffffffffffffffffff82169050919050565b60006200027e8262000251565b9050919050565b620002908162000271565b81146200029c57600080fd5b50565b600081519050620002b08162000285565b92915050565b6000819050919050565b620002cb81620002b6565b8114620002d757600080fd5b50565b600081519050620002eb81620002c0565b92915050565b600080600080600060a0868803121562000310576200030f620000c8565b5b600086015167ffffffffffffffff811115620003315762000330620000cd565b5b6200033f888289016200021e565b955050602086015167ffffffffffffffff811115620003635762000362620000cd565b5b62000371888289016200021e565b945050604062000384888289016200029f565b93505060606200039788828901620002da565b9250506080620003aa88828901620002da565b9150509295509295909350565b600081519050919050565b7f4e487b7100000000000000000000000000000000000000000000000000000000600052602260045260246000fd5b600060028204905060018216806200040a57607f821691505b60208210810362000420576200041f620003c2565b5b50919050565b60008190508160005260206000209050919050565b60006020601f8301049050919050565b600082821b905092915050565b6000600883026200048a7fffffffffffffffffffffffffffffffffffffffffffffffffffffffffffffffff826200044b565b6200049686836200044b565b95508019841693508086168417925050509392505050565b6000819050919050565b6000620004d9620004d3620004cd84620002b6565b620004ae565b620002b6565b9050919050565b6000819050919050565b620004f583620004b8565b6200050d6200050482620004e0565b84845462000458565b825550505050565b600090565b6200052462000515565b62000531818484620004ea565b505050565b5b8181101562000559576200054d6000826200051a565b60018101905062000537565b5050565b601f821115620005a857620005728162000426565b6200057d846200043b565b810160208510156200058d578190505b620005a56200059c856200043b565b83018262000536565b50505b505050565b600082821c905092915050565b6000620005cd60001984600802620005ad565b1980831691505092915050565b6000620005e88383620005ba565b9150826002028217905092915050565b6200060382620003b7565b67ffffffffffffffff8111156200061f576200061e620000ed565b5b6200062b8254620003f1565b620006388282856200055d565b600060209050601f8311600181146200067057600084156200065b578287015190505b620006678582620005da565b865550620006d7565b601f198416620006808662000426565b60005b82811015620006aa5784890151825560018201915060208501945060208101905062000683565b86831015620006ca5784890151620006c6601f891682620005ba565b8355505b6001600288020188555050505b505050505050565b61355c80620006ef6000396000f3fe6080604052600436106101665760003560e01c806354161657116100d15780638a71bb2d1161008a578063b88d4fde11610064578063b88d4fde14610542578063c87b56dd1461056b578063e985e9c5146105a8578063ecf36009146105e557610166565b80638a71bb2d146104c357806395d89b41146104ee578063a22cb4651461051957610166565b8063541616571461037d578063597e2ba4146103ba5780636352211e146103f757806370a0823114610434578063745c27c91461047157806381ea4ea61461049a57610166565b806323b872dd1161012357806323b872dd1461027e578063397b6384146102a75780633b9ff843146102c357806342842e0e146102ec57806343bc1612146103155780634f51e2941461034057610166565b806301ffc9a71461016b57806306fdde03146101a8578063081812fc146101d3578063095ea7b3146102105780630a2766801461023957806317e5883c14610255575b600080fd5b34801561017757600080fd5b50610192600480360381019061018d919061226e565b610610565b60405161019f91906122b6565b60405180910390f35b3480156101b457600080fd5b506101bd6106f2565b6040516101ca9190612361565b60405180910390f35b3480156101df57600080fd5b506101fa60048036038101906101f591906123b9565b610784565b6040516102079190612427565b60405180910390f35b34801561021c57600080fd5b506102376004803603810190610232919061246e565b6107ca565b005b610253600480360381019061024e919061246e565b6108e1565b005b34801561026157600080fd5b5061027c600480360381019061027791906124ae565b6109fe565b005b34801561028a57600080fd5b506102a560048036038101906102a091906124db565b610af2565b005b6102c160048036038101906102bc919061252e565b610b52565b005b3480156102cf57600080fd5b506102ea60048036038101906102e591906124ae565b610dde565b005b3480156102f857600080fd5b50610313600480360381019061030e91906124db565b610ec9565b005b34801561032157600080fd5b5061032a610ee9565b604051610337919061258f565b60405180910390f35b34801561034c57600080fd5b50610367600480360381019061036291906124ae565b610f0f565b60405161037491906122b6565b60405180910390f35b34801561038957600080fd5b506103a4600480360381019061039f91906123b9565b610f2f565b6040516103b19190612427565b60405180910390f35b3480156103c657600080fd5b506103e160048036038101906103dc91906123b9565b610f62565b6040516103ee9190612427565b60405180910390f35b34801561040357600080fd5b5061041e600480360381019061041991906123b9565b610f9f565b60405161042b9190612427565b60405180910390f35b34801561044057600080fd5b5061045b600480360381019061045691906124ae565b611025565b60405161046891906125b9565b60405180910390f35b34801561047d57600080fd5b5061049860048036038101906104939190612600565b6110dc565b005b3480156104a657600080fd5b506104c160048036038101906104bc91906124ae565b6111b0565b005b3480156104cf57600080fd5b506104d861129b565b6040516104e591906125b9565b60405180910390f35b3480156104fa57600080fd5b506105036112a1565b6040516105109190612361565b60405180910390f35b34801561052557600080fd5b50610540600480360381019061053b9190612659565b611333565b005b34801561054e57600080fd5b50610569600480360381019061056491906127ce565b611349565b005b34801561057757600080fd5b50610592600480360381019061058d91906123b9565b6113ab565b60405161059f9190612361565b60405180910390f35b3480156105b457600080fd5b506105cf60048036038101906105ca9190612851565b611413565b6040516105dc91906122b6565b60405180910390f35b3480156105f157600080fd5b506105fa6114a7565b60405161060791906125b9565b60405180910390f35b60007f80ac58cd000000000000000000000000000000000000000000000000000000007bffffffffffffffffffffffffffffffffffffffffffffffffffffffff1916827bffffffffffffffffffffffffffffffffffffffffffffffffffffffff191614806106db57507f5b5e139f000000000000000000000000000000000000000000000000000000007bffffffffffffffffffffffffffffffffffffffffffffffffffffffff1916827bffffffffffffffffffffffffffffffffffffffffffffffffffffffff1916145b806106eb57506106ea826114ad565b5b9050919050565b606060008054610701906128c0565b80601f016020809104026020016040519081016040528092919081815260200182805461072d906128c0565b801561077a5780601f1061074f5761010080835404028352916020019161077a565b820191906000526020600020905b81548152906001019060200180831161075d57829003601f168201915b5050505050905090565b600061078f82611517565b6004600083815260200190815260200160002060009054906101000a900473ffffffffffffffffffffffffffffffffffffffff169050919050565b60006107d582610f9f565b90508073ffffffffffffffffffffffffffffffffffffffff168373ffffffffffffffffffffffffffffffffffffffff1603610845576040517f08c379a000000000000000000000000000000000000000000000000000000000815260040161083c90612963565b60405180910390fd5b8073ffffffffffffffffffffffffffffffffffffffff16610864611562565b73ffffffffffffffffffffffffffffffffffffffff16148061089357506108928161088d611562565b611413565b5b6108d2576040517f08c379a00000000000000000000000000000000000000000000000000000000081526004016108c9906129f5565b60405180910390fd5b6108dc838361156a565b505050565b6108eb3382611623565b61092a576040517f08c379a000000000000000000000000000000000000000000000000000000000815260040161092190612a87565b60405180910390fd5b610935338383610ec9565b60006064600854346109479190612ad6565b6109519190612b47565b9050600660009054906101000a900473ffffffffffffffffffffffffffffffffffffffff1673ffffffffffffffffffffffffffffffffffffffff166108fc829081150290604051600060405180830381858888f193505050501580156109bb573d6000803e3d6000fd5b507f06f354ec7b9d2ca4e029f73ccb9119943a48c3295704dd66ca8beda0c7bae33f823385846040516109f19493929190612b78565b60405180910390a1505050565b600660009054906101000a900473ffffffffffffffffffffffffffffffffffffffff1673ffffffffffffffffffffffffffffffffffffffff163373ffffffffffffffffffffffffffffffffffffffff1614610a8e576040517f08c379a0000000000000000000000000000000000000000000000000000000008152600401610a8590612c09565b60405180910390fd5b6001600b6000828254610aa19190612c29565b92505081905550610ab481600b546116b8565b7fbe4d5028ecb11dfb1cbc0c1dd7eed270db43c11a50da18fceb823c9af57a2a78600b5482604051610ae7929190612c5d565b60405180910390a150565b610b03610afd611562565b82611623565b610b42576040517f08c379a0000000000000000000000000000000000000000000000000000000008152600401610b3990612cf8565b60405180910390fd5b610b4d8383836118d5565b505050565b600960003373ffffffffffffffffffffffffffffffffffffffff1673ffffffffffffffffffffffffffffffffffffffff16815260200190815260200160002060009054906101000a900460ff16610bde576040517f08c379a0000000000000000000000000000000000000000000000000000000008152600401610bd590612d8a565b60405180910390fd5b3373ffffffffffffffffffffffffffffffffffffffff16610bfe83610f9f565b73ffffffffffffffffffffffffffffffffffffffff1603610c54576040517f08c379a0000000000000000000000000000000000000000000000000000000008152600401610c4b90612df6565b60405180910390fd5b6000606460075434610c669190612ad6565b610c709190612b47565b905060003390508073ffffffffffffffffffffffffffffffffffffffff166108fc839081150290604051600060405180830381858888f19350505050158015610cbd573d6000803e3d6000fd5b5060008234610ccc9190612e16565b9050600660009054906101000a900473ffffffffffffffffffffffffffffffffffffffff1673ffffffffffffffffffffffffffffffffffffffff166108fc829081150290604051600060405180830381858888f19350505050158015610d36573d6000803e3d6000fd5b50610d4a610d4386610f9f565b8587610af2565b83600a600087815260200190815260200160002060006101000a81548173ffffffffffffffffffffffffffffffffffffffff021916908373ffffffffffffffffffffffffffffffffffffffff1602179055507fec530ab710fdaa2b5968fe15f486992441a96f643219cf0150904aa5b9eedf82853385604051610dcf93929190612e4a565b60405180910390a15050505050565b600660009054906101000a900473ffffffffffffffffffffffffffffffffffffffff1673ffffffffffffffffffffffffffffffffffffffff163373ffffffffffffffffffffffffffffffffffffffff1614610e6e576040517f08c379a0000000000000000000000000000000000000000000000000000000008152600401610e6590612ef3565b60405180910390fd5b6000600960008373ffffffffffffffffffffffffffffffffffffffff1673ffffffffffffffffffffffffffffffffffffffff16815260200190815260200160002060006101000a81548160ff02191690831515021790555050565b610ee483838360405180602001604052806000815250611349565b505050565b600660009054906101000a900473ffffffffffffffffffffffffffffffffffffffff1681565b60096020528060005260406000206000915054906101000a900460ff1681565b600a6020528060005260406000206000915054906101000a900473ffffffffffffffffffffffffffffffffffffffff1681565b6000600a600083815260200190815260200160002060009054906101000a900473ffffffffffffffffffffffffffffffffffffffff169050919050565b600080610fab83611bce565b9050600073ffffffffffffffffffffffffffffffffffffffff168173ffffffffffffffffffffffffffffffffffffffff160361101c576040517f08c379a000000000000000000000000000000000000000000000000000000000815260040161101390612f5f565b60405180910390fd5b80915050919050565b60008073ffffffffffffffffffffffffffffffffffffffff168273ffffffffffffffffffffffffffffffffffffffff1603611095576040517f08c379a000000000000000000000000000000000000000000000000000000000815260040161108c90612ff1565b60405180910390fd5b600360008373ffffffffffffffffffffffffffffffffffffffff1673ffffffffffffffffffffffffffffffffffffffff168152602001908152602001600020549050919050565b600660009054906101000a900473ffffffffffffffffffffffffffffffffffffffff1673ffffffffffffffffffffffffffffffffffffffff163373ffffffffffffffffffffffffffffffffffffffff161461116c576040517f08c379a00000000000000000000000000000000000000000000000000000000081526004016111639061305d565b60405180910390fd5b80600660006101000a81548173ffffffffffffffffffffffffffffffffffffffff021916908373ffffffffffffffffffffffffffffffffffffffff16021790555050565b600660009054906101000a900473ffffffffffffffffffffffffffffffffffffffff1673ffffffffffffffffffffffffffffffffffffffff163373ffffffffffffffffffffffffffffffffffffffff1614611240576040517f08c379a0000000000000000000000000000000000000000000000000000000008152600401611237906130c9565b60405180910390fd5b6001600960008373ffffffffffffffffffffffffffffffffffffffff1673ffffffffffffffffffffffffffffffffffffffff16815260200190815260200160002060006101000a81548160ff02191690831515021790555050565b60075481565b6060600180546112b0906128c0565b80601f01602080910402602001604051908101604052809291908181526020018280546112dc906128c0565b80156113295780601f106112fe57610100808354040283529160200191611329565b820191906000526020600020905b81548152906001019060200180831161130c57829003601f168201915b5050505050905090565b61134561133e611562565b8383611c0b565b5050565b61135a611354611562565b83611623565b611399576040517f08c379a000000000000000000000000000000000000000000000000000000000815260040161139090612cf8565b60405180910390fd5b6113a584848484611d77565b50505050565b60606113b682611517565b60006113c0611dd3565b905060008151116113e0576040518060200160405280600081525061140b565b806113ea84611dea565b6040516020016113fb929190613125565b6040516020818303038152906040525b915050919050565b6000600560008473ffffffffffffffffffffffffffffffffffffffff1673ffffffffffffffffffffffffffffffffffffffff16815260200190815260200160002060008373ffffffffffffffffffffffffffffffffffffffff1673ffffffffffffffffffffffffffffffffffffffff16815260200190815260200160002060009054906101000a900460ff16905092915050565b60085481565b60007f01ffc9a7000000000000000000000000000000000000000000000000000000007bffffffffffffffffffffffffffffffffffffffffffffffffffffffff1916827bffffffffffffffffffffffffffffffffffffffffffffffffffffffff1916149050919050565b61152081611eb8565b61155f576040517f08c379a000000000000000000000000000000000000000000000000000000000815260040161155690612f5f565b60405180910390fd5b50565b600033905090565b816004600083815260200190815260200160002060006101000a81548173ffffffffffffffffffffffffffffffffffffffff021916908373ffffffffffffffffffffffffffffffffffffffff160217905550808273ffffffffffffffffffffffffffffffffffffffff166115dd83610f9f565b73ffffffffffffffffffffffffffffffffffffffff167f8c5be1e5ebec7d5bd14f71427d1e84f3dd0314c0f7b2291e5b200ac8c7c3b92560405160405180910390a45050565b60008061162f83610f9f565b90508073ffffffffffffffffffffffffffffffffffffffff168473ffffffffffffffffffffffffffffffffffffffff16148061167157506116708185611413565b5b806116af57508373ffffffffffffffffffffffffffffffffffffffff1661169784610784565b73ffffffffffffffffffffffffffffffffffffffff16145b91505092915050565b600073ffffffffffffffffffffffffffffffffffffffff168273ffffffffffffffffffffffffffffffffffffffff1603611727576040517f08c379a000000000000000000000000000000000000000000000000000000000815260040161171e90613195565b60405180910390fd5b61173081611eb8565b15611770576040517f08c379a000000000000000000000000000000000000000000000000000000000815260040161176790613201565b60405180910390fd5b61177e600083836001611ef9565b61178781611eb8565b156117c7576040517f08c379a00000000000000000000000000000000000000000000000000000000081526004016117be90613201565b60405180910390fd5b6001600360008473ffffffffffffffffffffffffffffffffffffffff1673ffffffffffffffffffffffffffffffffffffffff16815260200190815260200160002060008282540192505081905550816002600083815260200190815260200160002060006101000a81548173ffffffffffffffffffffffffffffffffffffffff021916908373ffffffffffffffffffffffffffffffffffffffff160217905550808273ffffffffffffffffffffffffffffffffffffffff16600073ffffffffffffffffffffffffffffffffffffffff167fddf252ad1be2c89b69c2b068fc378daa952ba7f163c4a11628f55a4df523b3ef60405160405180910390a46118d1600083836001611eff565b5050565b8273ffffffffffffffffffffffffffffffffffffffff166118f582610f9f565b73ffffffffffffffffffffffffffffffffffffffff161461194b576040517f08c379a000000000000000000000000000000000000000000000000000000000815260040161194290613293565b60405180910390fd5b600073ffffffffffffffffffffffffffffffffffffffff168273ffffffffffffffffffffffffffffffffffffffff16036119ba576040517f08c379a00000000000000000000000000000000000000000000000000000000081526004016119b190613325565b60405180910390fd5b6119c78383836001611ef9565b8273ffffffffffffffffffffffffffffffffffffffff166119e782610f9f565b73ffffffffffffffffffffffffffffffffffffffff1614611a3d576040517f08c379a0000000000000000000000000000000000000000000000000000000008152600401611a3490613293565b60405180910390fd5b6004600082815260200190815260200160002060006101000a81549073ffffffffffffffffffffffffffffffffffffffff02191690556001600360008573ffffffffffffffffffffffffffffffffffffffff1673ffffffffffffffffffffffffffffffffffffffff168152602001908152602001600020600082825403925050819055506001600360008473ffffffffffffffffffffffffffffffffffffffff1673ffffffffffffffffffffffffffffffffffffffff16815260200190815260200160002060008282540192505081905550816002600083815260200190815260200160002060006101000a81548173ffffffffffffffffffffffffffffffffffffffff021916908373ffffffffffffffffffffffffffffffffffffffff160217905550808273ffffffffffffffffffffffffffffffffffffffff168473ffffffffffffffffffffffffffffffffffffffff167fddf252ad1be2c89b69c2b068fc378daa952ba7f163c4a11628f55a4df523b3ef60405160405180910390a4611bc98383836001611eff565b505050565b60006002600083815260200190815260200160002060009054906101000a900473ffffffffffffffffffffffffffffffffffffffff169050919050565b8173ffffffffffffffffffffffffffffffffffffffff168373ffffffffffffffffffffffffffffffffffffffff1603611c79576040517f08c379a0000000000000000000000000000000000000000000000000000000008152600401611c7090613391565b60405180910390fd5b80600560008573ffffffffffffffffffffffffffffffffffffffff1673ffffffffffffffffffffffffffffffffffffffff16815260200190815260200160002060008473ffffffffffffffffffffffffffffffffffffffff1673ffffffffffffffffffffffffffffffffffffffff16815260200190815260200160002060006101000a81548160ff0219169083151502179055508173ffffffffffffffffffffffffffffffffffffffff168373ffffffffffffffffffffffffffffffffffffffff167f17307eab39ab6107e8899845ad3d59bd9653f200f220920489ca2b5937696c3183604051611d6a91906122b6565b60405180910390a3505050565b611d828484846118d5565b611d8e84848484611f05565b611dcd576040517f08c379a0000000000000000000000000000000000000000000000000000000008152600401611dc490613423565b60405180910390fd5b50505050565b606060405180602001604052806000815250905090565b606060006001611df98461208c565b01905060008167ffffffffffffffff811115611e1857611e176126a3565b5b6040519080825280601f01601f191660200182016040528015611e4a5781602001600182028036833780820191505090505b509050600082602001820190505b600115611ead578080600190039150507f3031323334353637383961626364656600000000000000000000000000000000600a86061a8153600a8581611ea157611ea0612b18565b5b04945060008503611e58575b819350505050919050565b60008073ffffffffffffffffffffffffffffffffffffffff16611eda83611bce565b73ffffffffffffffffffffffffffffffffffffffff1614159050919050565b50505050565b50505050565b6000611f268473ffffffffffffffffffffffffffffffffffffffff166121df565b1561207f578373ffffffffffffffffffffffffffffffffffffffff1663150b7a02611f4f611562565b8786866040518563ffffffff1660e01b8152600401611f719493929190613498565b6020604051808303816000875af1925050508015611fad57506040513d601f19601f82011682018060405250810190611faa91906134f9565b60015b61202f573d8060008114611fdd576040519150601f19603f3d011682016040523d82523d6000602084013e611fe2565b606091505b506000815103612027576040517f08c379a000000000000000000000000000000000000000000000000000000000815260040161201e90613423565b60405180910390fd5b805181602001fd5b63150b7a0260e01b7bffffffffffffffffffffffffffffffffffffffffffffffffffffffff1916817bffffffffffffffffffffffffffffffffffffffffffffffffffffffff191614915050612084565b600190505b949350505050565b600080600090507a184f03e93ff9f4daa797ed6e38ed64bf6a1f01000000000000000083106120ea577a184f03e93ff9f4daa797ed6e38ed64bf6a1f01000000000000000083816120e0576120df612b18565b5b0492506040810190505b6d04ee2d6d415b85acef81000000008310612127576d04ee2d6d415b85acef8100000000838161211d5761211c612b18565b5b0492506020810190505b662386f26fc10000831061215657662386f26fc10000838161214c5761214b612b18565b5b0492506010810190505b6305f5e100831061217f576305f5e100838161217557612174612b18565b5b0492506008810190505b61271083106121a457612710838161219a57612199612b18565b5b0492506004810190505b606483106121c757606483816121bd576121bc612b18565b5b0492506002810190505b600a83106121d6576001810190505b80915050919050565b6000808273ffffffffffffffffffffffffffffffffffffffff163b119050919050565b6000604051905090565b600080fd5b600080fd5b60007fffffffff0000000000000000000000000000000000000000000000000000000082169050919050565b61224b81612216565b811461225657600080fd5b50565b60008135905061226881612242565b92915050565b6000602082840312156122845761228361220c565b5b600061229284828501612259565b91505092915050565b60008115159050919050565b6122b08161229b565b82525050565b60006020820190506122cb60008301846122a7565b92915050565b600081519050919050565b600082825260208201905092915050565b60005b8381101561230b5780820151818401526020810190506122f0565b60008484015250505050565b6000601f19601f8301169050919050565b6000612333826122d1565b61233d81856122dc565b935061234d8185602086016122ed565b61235681612317565b840191505092915050565b6000602082019050818103600083015261237b8184612328565b905092915050565b6000819050919050565b61239681612383565b81146123a157600080fd5b50565b6000813590506123b38161238d565b92915050565b6000602082840312156123cf576123ce61220c565b5b60006123dd848285016123a4565b91505092915050565b600073ffffffffffffffffffffffffffffffffffffffff82169050919050565b6000612411826123e6565b9050919050565b61242181612406565b82525050565b600060208201905061243c6000830184612418565b92915050565b61244b81612406565b811461245657600080fd5b50565b60008135905061246881612442565b92915050565b600080604083850312156124855761248461220c565b5b600061249385828601612459565b92505060206124a4858286016123a4565b9150509250929050565b6000602082840312156124c4576124c361220c565b5b60006124d284828501612459565b91505092915050565b6000806000606084860312156124f4576124f361220c565b5b600061250286828701612459565b935050602061251386828701612459565b9250506040612524868287016123a4565b9150509250925092565b600080604083850312156125455761254461220c565b5b6000612553858286016123a4565b925050602061256485828601612459565b9150509250929050565b6000612579826123e6565b9050919050565b6125898161256e565b82525050565b60006020820190506125a46000830184612580565b92915050565b6125b381612383565b82525050565b60006020820190506125ce60008301846125aa565b92915050565b6125dd8161256e565b81146125e857600080fd5b50565b6000813590506125fa816125d4565b92915050565b6000602082840312156126165761261561220c565b5b6000612624848285016125eb565b91505092915050565b6126368161229b565b811461264157600080fd5b50565b6000813590506126538161262d565b92915050565b600080604083850312156126705761266f61220c565b5b600061267e85828601612459565b925050602061268f85828601612644565b9150509250929050565b600080fd5b600080fd5b7f4e487b7100000000000000000000000000000000000000000000000000000000600052604160045260246000fd5b6126db82612317565b810181811067ffffffffffffffff821117156126fa576126f96126a3565b5b80604052505050565b600061270d612202565b905061271982826126d2565b919050565b600067ffffffffffffffff821115612739576127386126a3565b5b61274282612317565b9050602081019050919050565b82818337600083830152505050565b600061277161276c8461271e565b612703565b90508281526020810184848401111561278d5761278c61269e565b5b61279884828561274f565b509392505050565b600082601f8301126127b5576127b4612699565b5b81356127c584826020860161275e565b91505092915050565b600080600080608085870312156127e8576127e761220c565b5b60006127f687828801612459565b945050602061280787828801612459565b9350506040612818878288016123a4565b925050606085013567ffffffffffffffff81111561283957612838612211565b5b612845878288016127a0565b91505092959194509250565b600080604083850312156128685761286761220c565b5b600061287685828601612459565b925050602061288785828601612459565b9150509250929050565b7f4e487b7100000000000000000000000000000000000000000000000000000000600052602260045260246000fd5b600060028204905060018216806128d857607f821691505b6020821081036128eb576128ea612891565b5b50919050565b7f4552433732313a20617070726f76616c20746f2063757272656e74206f776e6560008201527f7200000000000000000000000000000000000000000000000000000000000000602082015250565b600061294d6021836122dc565b9150612958826128f1565b604082019050919050565b6000602082019050818103600083015261297c81612940565b9050919050565b7f4552433732313a20617070726f76652063616c6c6572206973206e6f7420746f60008201527f6b656e206f776e6572206f7220617070726f76656420666f7220616c6c000000602082015250565b60006129df603d836122dc565b91506129ea82612983565b604082019050919050565b60006020820190508181036000830152612a0e816129d2565b9050919050565b7f4f6e6c79206f776e6572206f7220617070726f7665642061646472657373206360008201527f616e207472616e73666572206f776e6572736869700000000000000000000000602082015250565b6000612a716035836122dc565b9150612a7c82612a15565b604082019050919050565b60006020820190508181036000830152612aa081612a64565b9050919050565b7f4e487b7100000000000000000000000000000000000000000000000000000000600052601160045260246000fd5b6000612ae182612383565b9150612aec83612383565b9250828202612afa81612383565b91508282048414831517612b1157612b10612aa7565b5b5092915050565b7f4e487b7100000000000000000000000000000000000000000000000000000000600052601260045260246000fd5b6000612b5282612383565b9150612b5d83612383565b925082612b6d57612b6c612b18565b5b828204905092915050565b6000608082019050612b8d60008301876125aa565b612b9a6020830186612418565b612ba76040830185612418565b612bb460608301846125aa565b95945050505050565b7f4f6e6c79206172746973742063616e20637265617465204e4654000000000000600082015250565b6000612bf3601a836122dc565b9150612bfe82612bbd565b602082019050919050565b60006020820190508181036000830152612c2281612be6565b9050919050565b6000612c3482612383565b9150612c3f83612383565b9250828201905080821115612c5757612c56612aa7565b5b92915050565b6000604082019050612c7260008301856125aa565b612c7f6020830184612418565b9392505050565b7f4552433732313a2063616c6c6572206973206e6f7420746f6b656e206f776e6560008201527f72206f7220617070726f76656400000000000000000000000000000000000000602082015250565b6000612ce2602d836122dc565b9150612ced82612c86565b604082019050919050565b60006020820190508181036000830152612d1181612cd5565b9050919050565b7f4f6e6c7920616666696c69617465732063616e206561726e20636f6d6d69737360008201527f696f6e0000000000000000000000000000000000000000000000000000000000602082015250565b6000612d746023836122dc565b9150612d7f82612d18565b604082019050919050565b60006020820190508181036000830152612da381612d67565b9050919050565b7f43616e6e6f742073656c662d7265666572000000000000000000000000000000600082015250565b6000612de06011836122dc565b9150612deb82612daa565b602082019050919050565b60006020820190508181036000830152612e0f81612dd3565b9050919050565b6000612e2182612383565b9150612e2c83612383565b9250828203905081811115612e4457612e43612aa7565b5b92915050565b6000606082019050612e5f60008301866125aa565b612e6c6020830185612418565b612e7960408301846125aa565b949350505050565b7f4f6e6c79206172746973742063616e2072656d6f766520616666696c6961746560008201527f7300000000000000000000000000000000000000000000000000000000000000602082015250565b6000612edd6021836122dc565b9150612ee882612e81565b604082019050919050565b60006020820190508181036000830152612f0c81612ed0565b9050919050565b7f4552433732313a20696e76616c696420746f6b656e2049440000000000000000600082015250565b6000612f496018836122dc565b9150612f5482612f13565b602082019050919050565b60006020820190508181036000830152612f7881612f3c565b9050919050565b7f4552433732313a2061646472657373207a65726f206973206e6f74206120766160008201527f6c6964206f776e65720000000000000000000000000000000000000000000000602082015250565b6000612fdb6029836122dc565b9150612fe682612f7f565b604082019050919050565b6000602082019050818103600083015261300a81612fce565b9050919050565b7f4f6e6c79206172746973742063616e206368616e676520617274697374000000600082015250565b6000613047601d836122dc565b915061305282613011565b602082019050919050565b600060208201905081810360008301526130768161303a565b9050919050565b7f4f6e6c79206172746973742063616e2061646420616666696c69617465730000600082015250565b60006130b3601e836122dc565b91506130be8261307d565b602082019050919050565b600060208201905081810360008301526130e2816130a6565b9050919050565b600081905092915050565b60006130ff826122d1565b61310981856130e9565b93506131198185602086016122ed565b80840191505092915050565b600061313182856130f4565b915061313d82846130f4565b91508190509392505050565b7f4552433732313a206d696e7420746f20746865207a65726f2061646472657373600082015250565b600061317f6020836122dc565b915061318a82613149565b602082019050919050565b600060208201905081810360008301526131ae81613172565b9050919050565b7f4552433732313a20746f6b656e20616c7265616479206d696e74656400000000600082015250565b60006131eb601c836122dc565b91506131f6826131b5565b602082019050919050565b6000602082019050818103600083015261321a816131de565b9050919050565b7f4552433732313a207472616e736665722066726f6d20696e636f72726563742060008201527f6f776e6572000000000000000000000000000000000000000000000000000000602082015250565b600061327d6025836122dc565b915061328882613221565b604082019050919050565b600060208201905081810360008301526132ac81613270565b9050919050565b7f4552433732313a207472616e7366657220746f20746865207a65726f2061646460008201527f7265737300000000000000000000000000000000000000000000000000000000602082015250565b600061330f6024836122dc565b915061331a826132b3565b604082019050919050565b6000602082019050818103600083015261333e81613302565b9050919050565b7f4552433732313a20617070726f766520746f2063616c6c657200000000000000600082015250565b600061337b6019836122dc565b915061338682613345565b602082019050919050565b600060208201905081810360008301526133aa8161336e565b9050919050565b7f4552433732313a207472616e7366657220746f206e6f6e20455243373231526560008201527f63656976657220696d706c656d656e7465720000000000000000000000000000602082015250565b600061340d6032836122dc565b9150613418826133b1565b604082019050919050565b6000602082019050818103600083015261343c81613400565b9050919050565b600081519050919050565b600082825260208201905092915050565b600061346a82613443565b613474818561344e565b93506134848185602086016122ed565b61348d81612317565b840191505092915050565b60006080820190506134ad6000830187612418565b6134ba6020830186612418565b6134c760408301856125aa565b81810360608301526134d9818461345f565b905095945050505050565b6000815190506134f381612242565b92915050565b60006020828403121561350f5761350e61220c565b5b600061351d848285016134e4565b9150509291505056fea26469706673582212203337d527d2cc06f5ea8d588312c7b2fed5de3f0611ea3910de8bce95185505a064736f6c63430008130033",
  "immutableReferences": {},
  "source": "// SPDX-License-Identifier: UNLICENSED\npragma solidity ^0.8.19;\n\n// Import ERC-721 token standard\nimport \"@openzeppelin/contracts/token/ERC721/ERC721.sol\";\n\n\ncontract ArtChain is ERC721 {\n    address payable public artist;\n    uint public royaltyPercentage;\n    uint public secondaryRoyaltyPercentage;\n    mapping (address => bool) public affiliates; //mapping to keep track of approved affiliates\n    mapping (uint => address) public tokenBuyer; //mapping to keep track of token buyers\n    uint256 private _currentTokenId = 0; //counter to keep track of current token ID\n    \n    // Events\n    event NFTCreated(uint tokenId, address to); //when a new NFT is created\n    event OwnershipTransferred(uint tokenId, address from, address to, uint royaltyAmount); //when ownership of a NFT is transferred\n    event CommissionPaid(uint tokenId, address affiliate, uint commissionAmount); //when a commission is paid\n    \n    // Constructor function that sets the name, symbol, artist, and royalty percentage of the NFT\n    constructor(string memory _name, string memory _symbol, address payable _artist, uint _royaltyPercentage, uint _secondaryRoyaltyPercentage) ERC721(_name, _symbol) {\n        artist = _artist;\n        royaltyPercentage = _royaltyPercentage;\n        secondaryRoyaltyPercentage = _secondaryRoyaltyPercentage;\n    }\n    \n    // Function to create a new NFT which can only be called by the artist\n    function createNFT(address _to) public {\n        require(msg.sender == artist, \"Only artist can create NFT\");\n        _currentTokenId += 1;\n        _mint(_to, _currentTokenId);\n        emit NFTCreated(_currentTokenId, _to);\n    }\n\n    // Function to transfer ownership of a NFT which can only be called by the owner or an approved address\n    function transferOwnership(address _to, uint _tokenId) public payable {\n        require(_isApprovedOrOwner(msg.sender, _tokenId), \"Only owner or approved address can transfer ownership\");\n        safeTransferFrom(msg.sender, _to, _tokenId);\n\n        // Calculate and distribute royalty to the artist\n        uint royaltyAmount = (msg.value * secondaryRoyaltyPercentage) / 100;\n        artist.transfer(royaltyAmount);\n        emit OwnershipTransferred(_tokenId, msg.sender, _to, royaltyAmount);\n    }\n\n    // Function to pay commission to affiliates\n    function payCommission(uint _tokenId, address _buyer) public payable {\n        require(affiliates[msg.sender], \"Only affiliates can earn commission\");\n        require(ownerOf(_tokenId) != msg.sender, \"Cannot self-refer\");\n        uint commissionAmount = (msg.value * royaltyPercentage) / 100;\n\n        // Convert msg.sender to an address payable\n        address payable recipient = payable(address(uint160(msg.sender)));\n\n        recipient.transfer(commissionAmount);\n        uint royaltyAmount = msg.value - commissionAmount;\n        artist.transfer(royaltyAmount); // Send remaining value to the artist\n        transferFrom(ownerOf(_tokenId), _buyer, _tokenId);\n        tokenBuyer[_tokenId] = _buyer; // Update buyer mapping\n        emit CommissionPaid(_tokenId, msg.sender, commissionAmount);\n    }\n\n\n\n    // Function to add an affiliate which can only be called by the artist\n    function addAffiliate(address _affiliate) public {\n        require(msg.sender == artist, \"Only artist can add affiliates\");\n        affiliates[_affiliate] = true;\n    }\n    \n    // Function to remove an affiliate which can only be called by the artist\n    function removeAffiliate(address _affiliate) public {\n        require(msg.sender == artist, \"Only artist can remove affiliates\");\n        affiliates[_affiliate] = false;\n    }\n    \n    // Function to return the buyer of a specific token\n    function getBuyerOfToken(uint _tokenId) public view returns(address) {\n        return tokenBuyer[_tokenId];\n    }\n\n    // Function to change the artist\n    function changeArtist(address payable newArtist) public {\n        require(msg.sender == artist, \"Only artist can change artist\");\n        artist = newArtist;\n    }\n}\n",
  "sourcePath": "/Users/tenzinpema/ArtChain-Dapp/artchain-contract/contracts/ArtChain.sol",
  "compiler": {
    "name": "solc",
    "version": "0.8.19+commit.7dd6d404.Emscripten.clang"
  },
  "schemaVersion": "3.4.13",
  "updatedAt": "2023-05-10T03:52:49.891Z",
  "networkType": "ethereum",
  "devdoc": {
    "events": {
      "Approval(address,address,uint256)": {
        "details": "Emitted when `owner` enables `approved` to manage the `tokenId` token."
      },
      "ApprovalForAll(address,address,bool)": {
        "details": "Emitted when `owner` enables or disables (`approved`) `operator` to manage all of its assets."
      },
      "Transfer(address,address,uint256)": {
        "details": "Emitted when `tokenId` token is transferred from `from` to `to`."
      }
    },
    "kind": "dev",
    "methods": {
      "approve(address,uint256)": {
        "details": "See {IERC721-approve}."
      },
      "balanceOf(address)": {
        "details": "See {IERC721-balanceOf}."
      },
      "getApproved(uint256)": {
        "details": "See {IERC721-getApproved}."
      },
      "isApprovedForAll(address,address)": {
        "details": "See {IERC721-isApprovedForAll}."
      },
      "name()": {
        "details": "See {IERC721Metadata-name}."
      },
      "ownerOf(uint256)": {
        "details": "See {IERC721-ownerOf}."
      },
      "safeTransferFrom(address,address,uint256)": {
        "details": "See {IERC721-safeTransferFrom}."
      },
      "safeTransferFrom(address,address,uint256,bytes)": {
        "details": "See {IERC721-safeTransferFrom}."
      },
      "setApprovalForAll(address,bool)": {
        "details": "See {IERC721-setApprovalForAll}."
      },
      "supportsInterface(bytes4)": {
        "details": "See {IERC165-supportsInterface}."
      },
      "symbol()": {
        "details": "See {IERC721Metadata-symbol}."
      },
      "tokenURI(uint256)": {
        "details": "See {IERC721Metadata-tokenURI}."
      },
      "transferFrom(address,address,uint256)": {
        "details": "See {IERC721-transferFrom}."
      }
    },
    "version": 1
  },
  "userdoc": {
    "kind": "user",
    "methods": {},
    "version": 1
  }
}